:100000000C9417140C9450140C9450140C94501419
:100010000C9403310C9403310C9403310C94033190
:100020000C9450140C9450140C9450140C945014C0
:100030000C9450140C94C5260C9450140C94501429
:100040000C94D6250C9450140C94779A0C9450145C
:100050000C94A1710C9497710C9450140C9450143E
:100060000C9450140C9450140C9450140C94501480
:100070000C9450140C9450140C9450140C94501470
:100080000C9450140C9450140C9450144E414E493E
:100090004E495459494E46CDCCCC3D0AD7233C1746
:1000A000B7D13877CC2B329595E6241FB14F0A0093
:1000B0000020410000C84200401C4620BCBE4CCA83
:1000C0001B0E5AAEC59D74434F4D4D554E4943418D
:1000D00054494F4E0044525952554E004552524FCA
:1000E000525300494E464F004543484F004142534A
:1000F00000504C4100506C6561736520526573651A
:1001000074005052494E5445522048414C54454485
:100110000025533A202553004B494C4C45442E2092
:10012000005072696E7465722068616C7465642E2B
:10013000206B696C6C28292063616C6C6564210AF2
:10014000006563686F3A004572726F723A0020442E
:100150000020204D32303020530020284469736144
:10016000626C6564293A0046696C616D656E742045
:1001700073657474696E67730020204D32303120CE
:1001800058004D617820416363656C6572617469E4
:100190006F6E2028756E6974732F733229002020CA
:1001A0004D3230332058004D6178206665656472A9
:1001B000617465732028756E6974732F732900202C
:1001C000520020204D323034205000416363656C72
:1001D00065726174696F6E2028756E6974732F7310
:1001E00032292028503C7072696E742D61636365FA
:1001F0006C3E20523C726574726163742D6163635E
:10020000656C3E20543C74726176656C2D6163634D
:10021000656C3E2900204A00205400205300202015
:100220004D323035204200416476616E6365642052
:1002300028423C6D696E5F7365676D656E745F74AF
:10024000696D655F75733E20533C6D696E5F6665D1
:100250006564726174653E20543C6D696E5F7472B2
:100260006176656C5F66656564726174653E204A9F
:100270003C6A756E635F6465763E29002044002009
:10028000490020204D333031205000486F74656E96
:1002900064205049440020440020490020204D3370
:1002A000303420500042656420504944002E0A003A
:1002B0005007062503250025206E6F74206469739E
:1002C00061626C65642E2053686172656420776991
:1002D00074680020496E76616C6964206578747278
:1002E00075646572200020746F6F206C6F6E6720DC
:1002F000657874727573696F6E2070726576656E5D
:100300007465640A0020636F6C642065787472758C
:1003100073696F6E2070726576656E7465640A002D
:10032000536C6565702E2E2E00436C69636B2074D0
:100330006F20526573756D652E2E2E00616C736F84
:1003400020656E61626C6564290A004E6F204D6FF6
:1003500076652E00456E642066696C65206C697355
:10036000740A00426567696E2066696C65206C6975
:1003700073740A004E6F206D656469610A00286E0F
:100380006F2066696C65290043757272656E742012
:1003900066696C653A20005344207072696E746916
:1003A0006E67206279746520004E6F74205344207C
:1003B0007072696E74696E670A002E0A0044656C7B
:1003C0006574696F6E206661696C65642C2046698E
:1003D0006C653A200046696C652064656C657465DF
:1003E000643A002569730025696D2025697300252D
:1003F00069682025696D20256973002569642025B9
:1004000069682025696D2025697300256979202593
:100410006964202569682025696D2025697300506D
:1004200072696E742074696D653A20006F6B006F9D
:10043000666600E800E300DC00D500C700444542E2
:1004400055473A00416E6574204138204F46462E8C
:1004500000434F4E4649475F4558504F5254004D58
:100460004541545041434B00434F4F4C45525F541C
:10047000454D5045524154555245004348414D4227
:1004800045525F54454D50455241545552450042E6
:100490004142595354455050494E470041524353ED
:1004A000004D4F54494F4E5F4D4F44455300544803
:1004B00045524D414C5F50524F54454354494F4E65
:1004C00000455854454E4445445F4D323000435535
:1004D00053544F4D5F4649524D574152455F555019
:1004E0004C4F4144004C464E5F5752495445004CD6
:1004F0004F4E475F46494C454E414D45004155548E
:100500004F5245504F52545F53445F5354415455DA
:10051000530053445F57524954450052455045419A
:1005200054004D554C54495F564F4C554D45005362
:1005300044434152440050524F4D50545F53555024
:10054000504F525400484F53545F414354494F4E0B
:100550005F434F4D4D414E445300454D4552474535
:100560004E43595F50415253455200434153455FFA
:100570004C494748545F4252494748544E455353AB
:1005800000544F47474C455F4C494748545300532C
:100590004F4654574152455F504F574552004255C0
:1005A000494C445F50455243454E54004C455645D6
:1005B0004C494E475F44415441005A5F50524F42AC
:1005C000450052554E4F5554004155544F4C4556D9
:1005D000454C005052494E545F4A4F420050524FD2
:1005E0004752455353004155544F5245504F525472
:1005F0005F54454D50004155544F5245504F525451
:100600005F504F5300564F4C554D4554524943008F
:10061000454550524F4D0042494E4152595F46495F
:100620004C455F5452414E53464552005345524942
:10063000414C5F584F4E5F584F4646004649524D19
:10064000574152455F4E414D453A4D61726C696E5E
:10065000206275676669782D322E312E7820284108
:10066000756720313920323032322030393A35390D
:100670003A30382920534F555243455F434F444544
:100680005F55524C3A6769746875622E636F6D2FBF
:100690004D61726C696E4669726D776172652F4D3E
:1006A00061726C696E2050524F544F434F4C5F56ED
:1006B000455253494F4E3A312E30204D414348491F
:1006C0004E455F545950453A416E6574204138207B
:1006D00045585452554445525F434F554E543A3154
:1006E00020555549443A63656465326132662D345C
:1006F0003161322D343734382D396231322D633542
:10070000356336326633363766660A002F2F004D62
:1007100031343520533C696E6465783E206F7574C2
:10072000206F662072616E67652028302D31290A9E
:10073000003F4A206F7574206F662072616E676596
:100740002028302E303120746F20302E33290A00BB
:100750002058004F4646004F4E003B200020204DC1
:1007600061783A2000200020204D696E3A20002058
:100770003B200020204D32313120530046523A00B8
:1007800020466C6F773A200064697300656E004301
:10079000290A0061626C656420286D696E207465A9
:1007A0006D702000436F6C642065787472756465A9
:1007B00073206172652000486F6D65202573257375
:1007C0002573204669727374004F6666736574738F
:1007D000204170706C696564004572723A20546FF4
:1007E0006F206661722100546F6F2066617220660F
:1007F000726F6D207265666572656E636520706FDD
:10080000696E740A00454550524F4D204F4B0A0007
:100810004D383400446F6E65207072696E74696E75
:10082000672066696C650A004D3737004D3331002B
:10083000496E76616C69642065787472756465725E
:100840000A0020204D323036205800486F6D652058
:100850006F6666736574004361703A0020573A0012
:10086000436F6F6C696E672E2E2E00453120255325
:100870000020573A0042656420436F6F6C696E67D1
:100880002E2E2E004265642048656174696E672EC5
:100890002E2E0023646566696E65204445464155E9
:1008A0004C545F00626564004B6420004B6920007B
:1008B0004B7020002066696E697368656421205062
:1008C000757420746865206C617374204B702C20E3
:1008D0004B6920616E64204B6420636F6E7374619A
:1008E0006E74732066726F6D2062656C6F7720691D
:1008F0006E746F20436F6E66696775726174696F9D
:100900006E2E680A00504944204175746F74756EEC
:100910006500206661696C6564212074696D656F8E
:1009200075740A00504944204175746F74756E6582
:1009300000206661696C6564212054656D70657284
:10094000617475726520746F6F20686967680A004A
:10095000504944204175746F74756E650050494468
:10096000204379636C65730025532025692F256921
:1009700000204B643A2000204B693A2000204B7045
:100980003A200020436C617373696320504944200E
:100990000A00204E6F206F76657273686F6F740A5D
:1009A000002054753A2000204B753A2000206D61DC
:1009B000783A2000206D696E3A200020643A2000C9
:1009C00020626961733A200048656174696E672E20
:1009D0002E2E002073746172740A00504944204125
:1009E00075746F74756E6500206661696C6564214D
:1009F0002054656D706572617475726520746F6FD7
:100A000020686967680A00504944204175746F7412
:100A1000756E6500504944204175746F74756E653C
:100A200000206661696C656421204261642068650C
:100A3000617465722069640A0050494420417574EC
:100A40006F74756E6500A10000006900A2000000CF
:100A50006300B00000000900C10000004100C200B6
:100A600000004100C30000004100C400000041003C
:100A7000C50000004100C60000004145C70000005D
:100A80004300C80000004500C90000004500CD003B
:100A900000004900D10000004E00D50000004F00CA
:100AA000D60000004F00D70000007800DC000000F6
:100AB0005500DD0000005900E00000006100E10089
:100AC00000006100E20000006100E300000061003E
:100AD000E40000006100E50000006100E6000000A5
:100AE0006165E70000006300E80000006500E900C0
:100AF00000006500EA0000006500EB0000006500F2
:100B0000EC0000006900ED0000006900EE0000004C
:100B10006900EF0000006900F10000006E00F200C3
:100B200000006F00F30000006F00F40000006F0091
:100B3000F50000006F00F60000006F00F8000000F4
:100B40006F00F90000007500FA0000007500FB005E
:100B500000007500FC0000007500FD000000790039
:100B6000FF000000790004010000410005010000C1
:100B700061000601000043000701000063000C0152
:100B8000000043000D01000063000E01000044005E
:100B90000F01000064001101000064001901000051
:100BA00065001A01000045001B01000065001F01DF
:100BB00000006700300100004900310100006900B9
:100BC000410100004C00420100006C0043010000A4
:100BD0004E00440100006E00480100006E00580104
:100BE000000052005901000072005A010000530039
:100BF0005B01000073005F010000730060010000F2
:100C000053006101000073006501000074006F0172
:100C1000000075007C0100007A007D0100005A0090
:100C20007E0100007A00920100006600E3020000ED
:100C30007800222000002E001E2100005078222182
:100C40000000544D902100003C2D922100002D3ECB
:100C5000B02100000300BB21000004003C22000082
:100C60007E00482200007E3D60220000213D61227E
:100C700000003D00642200003C3D652200003E3D36
:100C8000F12300000700A03000003D0021F3010027
:100C90000200C2F401000500A2000000EC00B00058
:100CA0000000DF00E4000000E100F6000000EF00BB
:100CB000F7000000FD00FC000000F500E30200006A
:100CC000EB0087030000A5008F030000F4009803E9
:100CD0000000F2009E030000E300A3030000F60002
:100CE000A9030000F400AC030000E000AD03000025
:100CF000E300B1030000E000B2030000E200B5032E
:100D00000000E300B8030000F200BC030000E400B0
:100D1000BE030000E300C0030000F700C1030000B1
:100D2000E600C3030000E500902100007F0092214F
:100D300000007E001A220000E8001E220000F300DE
:100D400088250000FF0002300000A1000C300000E8
:100D5000A2000D300000A3009B300000DE009C309C
:100D60000000DF00A03000003D00A1300000A7001F
:100D7000A2300000B100A3300000A800A4300000A1
:100D8000B200A5300000A900A6300000B300A730D3
:100D90000000AA00A8300000B400A9300000AB0099
:100DA000AA300000B500AB300000B600AC30000047
:100DB000B6DEAD300000B700AE300000B7DEAF30B9
:100DC0000000B800B0300000B8DEB1300000B9005B
:100DD000B2300000B9DEB3300000BA00B430000019
:100DE000BADEB5300000BB00B6300000BBDEB73065
:100DF0000000BC00B8300000BCDEB9300000BD000F
:100E0000BA300000BDDEBB300000BE00BC300000C8
:100E1000BEDEBD300000BF00BE300000BFDEBF3010
:100E20000000C000C0300000C0DEC1300000C100C2
:100E3000C2300000C1DEC3300000AF00C43000008B
:100E4000C200C5300000C2DEC6300000C300C7309B
:100E50000000C3DEC8300000C400C9300000C4DE9A
:100E6000CA300000C500CB300000C600CC30000006
:100E7000C700CD300000C800CE300000C900CF3020
:100E80000000CA00D0300000CADED1300000CADF46
:100E9000D2300000CB00D3300000CBDED4300000D5
:100EA000CBDFD5300000CC00D6300000CCDED73010
:100EB0000000CCDFD8300000CD00D9300000CDDEFE
:100EC000DA300000CDDFDB300000CE00DC30000087
:100ED000CEDEDD300000CEDFDE300000CF00DF30C0
:100EE0000000D000E0300000D100E1300000D2006E
:100EF000E2300000D300E3300000AC00E43000003A
:100F0000D400E5300000AD00E6300000D500E73049
:100F10000000AE00E8300000D600E9300000D70045
:100F2000EA300000D800EB300000D900EC300000BF
:100F3000DA00ED300000DB00EF300000DC00F230C2
:100F40000000A600F3300000DD00F4300000B3DE46
:100F5000F7300000DCDEFA300000A6DEFB300000D7
:100F6000A500FC300000B000FD300000A400074EDA
:100F70000000FB0086510000FC0043530000FA0013
:100F800064FF0000A40065FF0000A50066FF0000EC
:100F9000A60067FF0000A70068FF0000A80069FF27
:100FA0000000A9006AFF0000AA006BFF0000AB0070
:100FB0006CFF0000AC006DFF0000AD006EFF000094
:100FC000AE006FFF0000AF0070FF0000B00071FFC7
:100FD0000000B10072FF0000B20073FF0000B30018
:100FE00074FF0000B40075FF0000B50076FF00003C
:100FF000B60077FF0000B70078FF0000B80079FF67
:101000000000B9007AFF0000BA007BFF0000BB00BF
:101010007CFF0000BC007DFF0000BD007EFF0000E3
:10102000BE007FFF0000BF0080FF0000C00081FF06
:101030000000C10082FF0000C20083FF0000C30067
:1010400084FF0000C40085FF0000C50086FF00008B
:10105000C60087FF0000C70088FF0000C80089FFA6
:101060000000C9008AFF0000CA008BFF0000CB000F
:101070008CFF0000CC008DFF0000CD008EFF000033
:10108000CE008FFF0000CF0090FF0000D00091FF46
:101090000000D10092FF0000D20093FF0000D300B7
:1010A00094FF0000D40095FF0000D50096FF0000DB
:1010B000D60097FF0000D70098FF0000D80099FFE6
:1010C0000000D9009AFF0000DA009BFF0000DB005F
:1010D0009CFF0000DC009DFF0000DD009EFF000083
:1010E000DE009FFF0000DF00E5FF00005C00000065
:1010F0000000010204040000001C1C0C0404040293
:1011000001000000000004081000000000002D2D68
:101110002D2D2D2D007C4D61726C696E7C002D2D66
:101120002D2D2D2D00001C1F11111F000000061970
:101130001803130C00040E1F041C000000000E1303
:1011400015110E00001C10181705060500040A0AE8
:101150000A0A11110E0C12120C00000000001F15DB
:1011600011151F000042656400456E636C6F737556
:101170007265002568753A25303268750025303271
:1011800068753A2530326875002530326875272534
:1011900030326875002D2D2D005344002020202072
:1011A000202020002020202000E803000403E80382
:1011B000000402E8030004014400760008E7011976
:1011C00002059A00CC00079F02D102042D015F01A5
:1011D000065072696E742041626F72746564004DCE
:1011E00032350050617573696E672E2E2E004D32B8
:1011F0003400454550524F4D2056657273696F6EED
:10120000204572726F7200454550524F4D20496E15
:10121000646578204572726F7200454550524F4D9B
:1012200020435243204572726F72003F0049676E3F
:101230006F726500526573657400496E6974696107
:101240006C697A6520454550524F4D0046696C2EB9
:10125000204469612E004F6666004F6E004520698C
:101260006E206D6D5E33004D696E2054726176653F
:101270006C205370656564004D696E2056656C6F17
:1012800063697479004D617820402053706565640E
:10129000004D6178204520416363656C004D6178A5
:1012A000204020416363656C0054726176656C2058
:1012B000416363656C0052657472616374204163BD
:1012C00063656C00416363656C00402073746570F6
:1012D000732F6D6D00416476616E636564205365A4
:1012E0007474696E6773003F0043616E63656C00E0
:1012F000496E6974004D34323800496E6974696111
:101300006C697A6520454550524F4D0046696C61C5
:101310006D656E740053746570732F6D6D004A7542
:101320006E6374696F6E2044657600416363656C1B
:1013300065726174696F6E004D61782053706565E8
:101340006420286D6D2F73290053657420486F6DDC
:1013500065204F66667365747300436F6E666967D8
:1013600075726174696F6E00426564004E6F7A7ABF
:101370006C650046616E20537065656400436F6E56
:1013800066696775726174696F6E00526573746F18
:1013900072652044656661756C7473004C6F61649E
:1013A0002053657474696E67730053746F7265209F
:1013B00053657474696E6773005072656865617413
:1013C000202420436F6E6600416476616E6365641D
:1013D0002053657474696E6773004D61696E003FD8
:1013E000004261636B0053746F70004D32320041F4
:1013F0007474616368204D65646961004D32310029
:101400005072696E742066726F6D204D65646961FB
:101410000052656C65617365204D656469610043C8
:101420006F6E66696775726174696F6E0054656D81
:101430007065726174757265004D6F74696F6E00CE
:10144000526573756D65205072696E740054756EC7
:10145000650053746F70205072696E74005061752E
:101460007365205072696E7400496E666F20536315
:101470007265656E003F005374617274205072692A
:101480006E740043616E63656C005072696E740027
:1014900043616E6E6F7420656E7465722073756241
:1014A0006469723A200005202E2E0004526566728F
:1014B000657368004D61696E002100486F74656E48
:1014C0006420746F6F20636F6C64004261636B0013
:1014D00050726F63656564004D6F76652045787462
:1014E0007275646572004D6F74696F6E0044697344
:1014F00061626C65205374657070657273004D385D
:1015000034004175746F20486F6D650047323800B4
:101510004D61696E005072656865617420242042D7
:1015200065640050726568656174202420456E64AE
:101530000054656D706572617475726500F100ED3F
:1015400000436F6F6C646F776E0050726568656101
:101550007420240046616E20537065656400426506
:1015600064004E6F7A7A6C65004D61696E0042616D
:10157000627973746570205A004261627973746590
:1015800070204000466C6F770046616E2053706596
:10159000656400426564004E6F7A7A6C6500537032
:1015A000656564004D61696E006F70656E00545230
:1015B00049474745524544003A20007A5F6D696EBD
:1015C00000795F6D696E00785F6D696E00526570BD
:1015D0006F7274696E6720656E6473746F702073C8
:1015E00074617475730A00000004C2000020C10019
:1015F0000000005761726E696E673A20486F6D692E
:101600006E672042756D702044697669736F722031
:101610003C20310A0002020400007D4300006643C2
:10162000000070430000A0400000A0400000004007
:1016300000005C4300005C4300007043000004C2F3
:10164000000020C10000000053657474696E677368
:101650002053746F72656400290A002062797465F2
:10166000733B20637263200053657474696E677303
:101670002053746F72656420280048617264636F40
:101680006465642044656661756C74205365747488
:10169000696E6773204C6F616465640020286D6D0E
:1016A000290020460020420020480020204D3134EF
:1016B000352053004D6174657269616C2068656105
:1016C00074757020706172616D657465727300204D
:1016D000204D3134392043203B20556E69747320EE
:1016E000696E2043656C736975730A0054656D708B
:1016F0006572617475726520556E6974730020207F
:10170000473231203B004C696E65617220556E692D
:10171000747300454550524F4D2064617461736984
:101720007A65206572726F722E0A00290A002062A3
:10173000797465733B2063726320002073746F7249
:1017400065642073657474696E6773207265747262
:101750006965766564202800202863616C63756C78
:101760006174656429210A0020213D20004545500F
:10177000524F4D20435243206D69736D617463680D
:10178000202D202873746F7265642920002053690E
:101790007A653A2000496E6465783A20000000C8F6
:1017A000430000C84300000041000048420000C858
:1017B000420000C8420000C8430000C842D00700F1
:1017C00000D00700006400000010270000204D61D9
:1017D000726C696E3D563836290A00454550524FA5
:1017E0004D2076657273696F6E206D69736D6174DB
:1017F00063682028454550524F4D3D0020436F758A
:101800006E7420583A00426564004531004500621C
:101810006564002C2073797374656D2073746F7028
:1018200070656421204865617465725F49443A209F
:10183000004572723A204D415854454D50004D417B
:101840005854454D5020747269676765726564002D
:1018500048656174696E67204661696C656400481B
:10186000656174696E67206661696C6564004572C4
:10187000723A204D494E54454D50004D494E544505
:101880004D502074726967676572656400202F008F
:101890002042403A0020403A007C3C3E5E2B3D3FD7
:1018A0002F5B5D3B2C2A225C0043616E6E6F7420BF
:1018B0006F70656E207375626469722000534420F6
:1018C00063617264206F6B0A006F70656E526F6F98
:1018D00074206661696C65640A00766F6C756D656D
:1018E0002E696E6974206661696C65640A004E6FCA
:1018F00020534420636172640A000A4D3234004D63
:101900003233202573002E0A006F70656E206661E9
:10191000696C65642C2046696C653A200046696CE8
:10192000652073656C65637465640A002053697A89
:10193000653A200046696C65206F70656E65643A93
:101940002000454E4420535542524F5554494E4570
:101950000A002220706F73002220706172656E741D
:101960003A2200535542524F5554494E4520434167
:101970004C4C207461726765743A2200537562633F
:10198000616C6C204F766572666C6F77004578638A
:101990006565646564206D617820535542524F55EA
:1019A00054494E452064657074683A0057726974F2
:1019B000696E6720746F2066696C653A20006672F4
:1019C00065736800646F696E67002066696C653ACC
:1019D00020004E6F7720002F6175746F25632E678E
:1019E000006D61726C696E66772E6F7267006D6153
:1019F000726C696E66772E6F7267006275676669D2
:101A0000782D322E312E78006275676669782D3216
:101A10002E312E7800006D61726C696E66772E6FC4
:101A20007267006D61726C696E66772E6F72670007
:101A3000206275676669782D322E312E780010008D
:101A4000C90210012C014001220170011801B001EE
:101A50000E01F00104015002FA00B002F000300360
:101A6000E600D003DC009004D2007005C800A00698
:101A7000BE000008B400B009AA00D00BA000600EA0
:101A8000960060118C000015820020197800C01D9E
:101A90006E00A0226400B0275A00902C5000003144
:101AA0004600E0343C0010383200903A2800603C98
:101AB0001E00A03D1400803E0A00203F00002020B0
:101AC000506C616E6E6572427566666572427974BD
:101AD00065733A20002046726565204D656D6F7212
:101AE000793A200020436F6D70696C65643A20413B
:101AF000756720313920323032320A00204C617350
:101B00007420557064617465643A20323032322D2D
:101B100030382D3139207C20417574686F723A203D
:101B200028426F62204B75686E2C20416E657420D0
:101B3000636F6E666967290A004D61726C696E2079
:101B40006275676669782D322E312E780A0020532F
:101B50006F6674776172652052657365740A002040
:101B60005761746368646F672052657365740A0017
:101B70002042726F776E206F7574205265736574A2
:101B80000A002045787465726E616C205265736539
:101B9000740A00506F77657255700A007374617231
:101BA000740A004732385859004D31303031006FD7
:101BB0006B006572726F722077726974696E67204C
:101BC000746F2066696C650A00446F6E65207361EE
:101BD00076696E672066696C652E0A00456E6473CF
:101BE000746F7073002553202563202563202563BF
:101BF00020256300205A3A0020593A0020583A0024
:101C0000656E6473746F7073206869743A20002481
:101C1000F404D9201BC40C5C0E9804C4095F02654F
:101C2000077101F405F900FB04B30048048700C103
:101C30000369005803550003034500BE023A0084BF
:101C400002310053022A002902250004022000E488
:101C5000011C00C8011900AF01170098011400848D
:101C6000011300710110006101100051010E0043C9
:101C7000010D0036010B002B010B0020010B00159C
:101C80000109000C01090003010800FB000800F332
:101C9000000800EB000700E4000600DE000600D8A4
:101CA000000600D2000600CC000500C7000500C2F7
:101CB000000500BD000400B9000400B5000400B137
:101CC000000400AD000400A9000400A5000300A268
:101CD0000003009F0004009B000300980003009590
:101CE00000020093000300900003008D0002008BAF
:101CF00000030088000200860002008400030081C7
:101D00000002007F0002007D0002007B00020079DB
:101D100000020077000100760002007400020072E9
:101D2000000100710002006F0002006D0001006CF4
:101D30000002006A000100690002006700010066FD
:101D40000001006500010064000200620001006102
:101D5000000100600001005F0002005D0001005C06
:101D60000001005B0001005A000100590001005809
:101D70000001005700010056000100550001005409
:101D80000001005300000053000100520001005107
:101D9000000100500001004F0001004E0000004E05
:101DA0000001004D0001004C0001004B0000004B01
:101DB0000001004A000100490001004800000048FD
:101DC00000010047000100460000004600010045F8
:101DD00000000045000100440001004300000043F2
:101DE00000010042000000420001004100000041EB
:101DF000000100400001003F0000003F0001003EE4
:101E00000000003E0001003D0000003D0001003CDC
:101E10000000003C0000003C0001003B0000003BD3
:101E20000001003A0000003A0001003900000039CA
:101E300000010038000000380000003800010037C1
:101E400000000037000100360000003600000036B8
:101E500000010035000000350000003500010034AD
:101E600000000034000000340001003300000033A3
:101E70000000003300010032000000320000003298
:101E8000000100310000003100000031000100308D
:101E900000000030000000300001002F0000002F83
:101EA0000000002F0000002F0001002E0000002E77
:101EB0000000002E0001002D0000002D0000002D6C
:101EC0000000002D0001002C0000002C0000002C60
:101ED0000000002C0001002B0000002B0000002B54
:101EE0000000002B0001002A0000002A0000002A48
:101EF0000000002A0001002900000029000000293C
:101F0000000000290000002900010028000000282E
:101F10000000002800000028000000280001002721
:101F20000000002700000027000000270000002715
:101F30000001002600000026000000260000002608
:101F400000000026000100250000002500000025FB
:101F500000000025000000250000002500010024ED
:101F600000000024000000240000002400000024E1
:101F700000010023000000230000002300000023D4
:101F800000000023000000230000002300010022C5
:101F900000000022000000220000002200000022B9
:101FA00000000022000100210000002100000021AB
:101FB000000000210000002100000021000000219D
:101FC0000001002000000020000000200000002090
:101FD0000000002000000020000000200000002081
:101FE0000001001F0000001F0000001F0000001F74
:101FF0000000001F0000001F0000001F0001001E65
:102000000000001E0000001E0000001E0000002452
:10201000F4D43050C38E20C2A24017828B701112AC
:102020007A910D816CD90AA861E108C758660761E9
:102030005143061E4B5D05C145A7041A4111040911
:102040003D9803713931034036DB0265339102D488
:10205000305402802E1D02632CEE01752AC501B09A
:1020600028A001102781018F2564012B244B01E05A
:10207000223401AC211F018D200D01801FFC008442
:102080001EED00971DDF00B81CD200E61BC6002025
:102090001BBC00641AB200B219A8000A19A0006A99
:1020A000189900D117910040178B00B516840031A4
:1020B000167E00B31579003A157300C7146F0058E7
:1020C000146A00EE1366008813630025135E00C7D0
:1020D000125B006C12570015125400C111510070B0
:1020E000114F0021114B00D61049008D10470046BA
:1020F00010440002104200C00F4000800F3E00421A
:102100000F3C00060F3B00CB0E3800930E37005CEF
:102110000E3500270E3400F30D3200C10D31009052
:102120000D3000600D2E00320D2D00050D2C00D954
:102130000C2B00AE0C2900850C29005C0C27003507
:102140000C27000E0C2600E80B2400C40B2400A072
:102150000B23007D0B23005A0B2100390B210018A3
:102160000B2000F80A1F00D90A1E00BB0A1E009DA2
:102170000A1D00800A1D00630A1C00470A1B002C70
:102180000A1B00110A1A00F7091A00DD091900C418
:10219000091900AB091900920917007B091800639F
:1021A0000917004C09160036091600200916000A06
:1021B000091500F5081500E0081400CC081400B853
:1021C000081400A4081400900813007D0812006B86
:1021D00008130058081200460812003408110023A2
:1021E0000811001208110001081100F0071000E0AA
:1021F000071000D0071000C0071000B0070F00A1A3
:1022000007100091070E0083070F0074070F006589
:10221000070E0057070E0049070E003B070D002E62
:10222000070E0020070D0013070D0006070D00F92B
:10223000060C00ED060D00E0060C00D4060C00C8EC
:10224000060C00BC060C00B0060C00A4060B00999E
:10225000060C008D060B0082060B0077060B006C47
:10226000060B0061060A0057060B004C060A0042E6
:10227000060A0038060A002E060A0024060A001A7A
:10228000060A001006090007060A00FD050900F409
:10229000050900EB050900E2050900D9050900D090
:1022A000050900C7050900BE050900B5050800AD10
:1022B000050800A50509009C050800940508008C88
:1022C000050800840508007C050800740508006CFA
:1022D000050700650508005D050700560508004E66
:1022E00005070047050700400508003805070031CD
:1022F0000507002A050700230507001C0506001630
:102300000507000F0507000805060002050700FB8A
:10231000040600F5040700EE040600E8040600E2E7
:10232000040700DB040600D5040600CF040600C93C
:10233000040600C3040600BD040600B7040600B18D
:10234000040500AC040600A6040600A00405009BDA
:1023500004060095040500900406008A0405008523
:10236000040500800406007A040500750405007069
:102370000405006B04050066040500610405005CAB
:1023800004050057040500520405004D04050048EB
:10239000040500430405003E0404003A040500352A
:1023A000040500300404002C040500270404002365
:1023B0000405001E0404001A04040016040500119C
:1023C0000404000D040400090405000404040000D2
:1023D000040400FC030400F8030400F4030400F008
:1023E000030400EC030400E8030400E4030400E039
:1023F000030400DC030400D8030400D4030400D069
:10240000030400CC030400C8030300C50303000455
:102410003700001E290000511B000058100000105A
:10242000090000CC04000078020000410100004DCA
:102430006F766520246D6D00302E303235004D6F83
:10244000766520302E316D6D004D6F766520316DD3
:102450006D004D6F76652031306D6D004D6F766586
:102460002041786973004D6F7665202A004D6F76A4
:10247000652040005072696E742066726F6D204D49
:10248000656469610000002200250028002B00001F
:10249000002100240027002A000202020202020298
:1024A00002040404040404040403030303030303F5
:1024B0000301010101010101010102040810204092
:1024C000800102040810204080010204081020400E
:1024D000808040201008040201486F6D696E6720FB
:1024E0004661696C656400FFFFFF220A00556E6B50
:1024F0006E6F776E20636F6D6D616E643A2022009F
:10250000204500205A0020590020204D3932205803
:102510000053746570732070657220756E69740065
:102520004D6564696120496E73657274656400006D
:102530000000010200090A0000000004030807006F
:102540000000000000000000000000000000007417
:102550006F6F206D75636820696E6163746976655D
:102560002074696D65202D2063757272656E74200C
:10257000636F6D6D616E643A20002121204B494CE0
:102580004C2063617573656420627920004D3131A0
:10259000322053687574646F776E0053544F5050F7
:1025A00045442E20005072696E7465722073746FFA
:1025B000707065642064756520746F206572726F39
:1025C00072732E2046697820746865206572726F78
:1025D0007220616E6420757365204D39393920741D
:1025E0006F20726573746172742E202854656D704B
:1025F00065726174757265206973207265736574A4
:102600002E2053657420697420616674657220728F
:10261000657374617274696E67290A004E6F204396
:102620006865636B73756D2077697468206C696E7B
:1026300065206E756D6265722C204C617374204C40
:10264000696E653A20004D3239004E6F204368654F
:10265000636B73756D2077697468206C696E652093
:102660006E756D6265722C204C617374204C696EBE
:10267000653A2000636865636B73756D206D6973DF
:102680006D617463682C204C617374204C696E65B5
:102690003A20004C696E65204E756D626572206946
:1026A00073206E6F74204C617374204C696E6520CA
:1026B0004E756D6265722B312C204C617374204C09
:1026C000696E653A20004D313130005365726961A1
:1026D0006C20737461747573206D69736D617463BC
:1026E000680A0053442072656164206572726F72DB
:1026F0000A00DB0FC93F45BCDA3F8FB30240FCF054
:10270000274056946140FE4B9B4084A5D840E0236F
:102710001841346A5641E859974164DBD5416E2728
:102720001742B4B75542CE1A9742C8AED542B588C3
:102730005A43D40684BFA65FA7BF7443E0BF10B15D
:102740001AC01C2C58C0E8F697C0B849D6C04E4EE7
:1027500017C124D355C1802497C1A0B5D5C1121A81
:1027600017C244AE55C2781797C26CACD5C2678801
:102770005AC320746F6F206C6F6E67206578747217
:102780007573696F6E2070726576656E7465640A24
:102790000020636F6C6420657874727573696F6E66
:1027A0002070726576656E7465640A006F6B0A004E
:1027B000526573656E643A200020453A00205A3A0B
:1027C0000020593A00583A004572726F72207772B1
:1027D0006974696E6720746F20454550524F4D21D2
:1027E0000A00544845524D414C2052554E415741E4
:1027F0005900546865726D616C2052756E61776125
:102800007900416E65742041382052656164792EEB
:10281000005072696E74696E672E2E2E00507269B8
:102820006E742050617573656400B1BD12C51124CA
:102830001FBECFEFD0E4DEBFCDBF84B78093981129
:1028400014BE0FB6F894A8958091600088618093BB
:102850006000109260000FBE12E0A0E0B1E0ECEF6B
:10286000F0EA01E00BBF02C007900D92A836B10755
:10287000D9F721E1A8E6B2E001C01D92A839B2075C
:10288000E1F714E1C6E1D4E104C02197FE010E9402
:10289000FDCDC531D107C9F70E94ABBE0C9472D0F3
:1028A0000C9400000F931F93CF93DF93CDB7DEB747
:1028B00060970FB6F894DEBF0FBECDBF8C01DC0170
:1028C000ED91FC910280F381E02DBE016F5F7F4F9F
:1028D0000995882309F464C08981807CC9F56F81DA
:1028E000637070E0762F6627770F770F8885B4E0E6
:1028F0008B9FC0011124682B792B89858295869541
:1029000086958370682B6F5F7F4F90E080E02A850B
:102910002370220F3B8537FB332730F9232B3E8171
:102920003F70230F3327331F2750310904C0660F30
:10293000771F881F991F2A95D2F760960FB6F894D3
:10294000DEBF0FBECDBFDF91CF911F910F910895D4
:10295000803419F568856695669570E090E080E0B2
:10296000CB01772766272A85622B098510E0102F77
:102970000027012E000C220B330B602B712B822BB6
:10298000932B6F5F7F4F8F4F9F4F4AE0660F771FEC
:10299000881F991F4A95D1F7D0CF8BE0F801848327
:1029A00060E070E0CB01C9CFFC01828108952F92D5
:1029B0003F924F925F926F927F928F929F92AF92CF
:1029C000BF92CF92DF92EF92FF920F931F93CF931C
:1029D000DF93CDB7DEB728970FB6F894DEBF0FBEF2
:1029E000CDBF98878F83DC010D90BC91A02DBA8359
:1029F000A98318966D917C9119976115710501F164
:102A000014968D919D910D90BC91A02D8B839C83EC
:102A1000AD83BE83072E000C880B990B0E9491C9D1
:102A20002B813C814D815E810E941ECE4B015C0159
:102A300020E030E040E751EC0E948BC987FF08C0DE
:102A400081E0EF81F885868BC12CD12C7601DEC028
:102A500020E030E040E751E4C501B4010E9482CF9C
:102A6000181664F481E0AF81B88556968C93C12C1A
:102A7000D12C8FE7E82E83E4F82EC8C0EF81F885CB
:102A80008689882349F0168A16861786108A118A45
:102A90001286138614861586A981BA811F964D90D9
:102AA0005D906D907C905297EF81F88526853785F3
:102AB00040895189C501B4010E941FCE1B016C01E0
:102AC00020E030E0A9010E948BC987FDBAC0A301B4
:102AD000920160E070E08FE793E40E9496CE7B0164
:102AE0008C019B01AC01B101C6010E9482CF181676
:102AF00014F071018601C701D801EF81F88586873E
:102B00009787A08BB18BA981BA811B962D913D919E
:102B10004D915C911E97C501B4010E94F0C94B0113
:102B20005C01EF81F88582829382A482B58297014D
:102B3000A801C301B2010E94F0C92B013C01AF8181
:102B4000B88516964D925D926D927C9219971A9661
:102B5000CD90DD90ED90FC901D972B813C814D81B7
:102B60005E8152966D917D918D919C9155970E94B9
:102B70001ECEE981FA8123893489458956890E94CC
:102B8000F0C9A70196010E941ECE20ED3CEC4CE45A
:102B90005DE30E94F0C9A70196010E941FCE6B0160
:102BA0007C01AF81B8851A96CD92DD92ED92FC92B0
:102BB0001D978B819C81AD81BE81EF81F885828BD1
:102BC000938BA48BB58BA3019201C501B4010E9424
:102BD0001FCEA70196010E941FCE20E030E0A90180
:102BE0000E941FCE6B017C0120E030E0A9010E9411
:102BF0008BC987FD29CF20E030E04FE753E4C701C0
:102C0000B6010E9482CF18160CF431CFC701B6016D
:102C100028960FB6F894DEBF0FBECDBFDF91CF91DF
:102C20001F910F91FF90EF90DF90CF90BF90AF90EA
:102C30009F908F907F906F905F904F903F902F90DC
:102C40000895E12CF12C00E010E055CFCF93DF93F5
:102C5000C0910A04D0910B0481E0CE31D105E4F09B
:102C600020E030E040E05FE36091060470910704EB
:102C700080910804909109040E941FCE0E94FECE0C
:102C80006C1B7D0B77FF03C071956195710981E025
:102C9000633071050CF080E0DF91CF910895FC0165
:102CA00090E1ACE9B3E001900D929A95E1F70895B7
:102CB00080E00895AF92BF92CF92DF92EF92FF92A1
:102CC0000F931F93CF93DF93C7ECD4E00BE914E08D
:102CD00087EDA82E84E0B82EC12CD12C7601C394A8
:102CE00069917991899199910E948FC9288939892F
:102CF0004A895B890E94F0C90E9403CFF801619361
:102D00007193819391938F01C616D706E806F90651
:102D100010F46B017C01AC16BD0611F76FEF7FEF6D
:102D2000CB01A70196010E9466CD2093AB0430939E
:102D3000AC044093AD045093AE04DF91CF911F914A
:102D40000F91FF90EF90DF90CF90BF90AF900895DC
:102D5000CF92DF92EF92FF9280914003882309F493
:102D600057C0C0903C03D0903D03E0903E03F090EC
:102D70003F0320E030E0A901C701B6010E948BC9E2
:102D8000882309F445C020E030E040E05FE3C7015C
:102D9000B6010E94F0C99B01AC010E94F0C92BED65
:102DA0003FE049E450E40E94F0C99B01AC0160E0BF
:102DB00070E080E89FE30E9496CE6B017C01C09298
:102DC0002A03D0922B03E0922C03F0922D03609102
:102DD0000E0170910F01072E000C880B990B0E94B9
:102DE00091C92AE037ED43E25CE30E94F0C9A701F4
:102DF00096010E94F0C96093490170934A01809343
:102E00004B0190934C01FF90EF90DF90CF9008958D
:102E1000C12CD12C80E8E82E8FE3F82ED0CFFC0116
:102E20007081472F50E0062E02C0559547950A94B1
:102E3000E2F740FF14C040910D0350E0062E02C09F
:102E4000559547950A94E2F740FF09C021E030E02C
:102E500001C0220F6A95EAF7209527232083089561
:102E6000CF93DF9324E0829FC0011124EC01C45C66
:102E7000D14FFC01EF5DFB4F825F9C4FDC012D9138
:102E80003D914D915C9160817181828193810E941D
:102E90001FCE688379838A839B83DF91CF910895C6
:102EA000CF93DF931F92CDB7DEB7898360E0CE0169
:102EB0000196B5DF61E0CE010196B1DF62E0CE019F
:102EC0000196ADDF89810F90DF91CF910895CF9268
:102ED000DF92EF92FF92FC01C080D180E280F3800C
:102EE00020E030E0A901C701B6010E948BC987FF2D
:102EF00068C0C701B601905820E030E040E251E4DC
:102F00000E94F0C920E030E040EA50E40E941FCE69
:102F100020E030E040E251E40E9496CE0E94FECED6
:102F20009B0160E22031F7E23F0730F0C90160E128
:102F300077E20E94BACD605D6093EE02283E83E0A6
:102F4000380708F445C0C90168EE73E00E94BACDA5
:102F5000CB016AE070E00E94BACD805D8093EF0201
:102F600080E22436310558F0C90164E670E00E9421
:102F7000BACDCB016AE070E00E94BACD805D80934B
:102F8000F00280E22A30310558F0EAE0F0E0C901B1
:102F9000BF010E94BACDCB01BF010E94BACD805DB6
:102FA0008093F102C9016AE070E00E94BACD805DB1
:102FB0008093F2028EEE92E0FF90EF90DF90CF9040
:102FC000089520E030E040E251E4C701B60198CF17
:102FD00080E2C4CF8F929F92AF92BF92CF92DF9246
:102FE000EF92FF92FC01C080D180E280F38020E06C
:102FF00030E040E251E4C701B6010E94F0C920E090
:1030000030E040E251E40E94F0C94B015C0120E055
:1030100030E0A901C701B6010E948BC920E030E071
:1030200040EA50E487FF04C020E030E040EA50EC82
:10303000C501B4010E941FCE20E030E040E251E41F
:103040000E9496CE0E94FECE9B018BE237FF05C008
:1030500022273327261B370B8DE28093ED02C9010F
:1030600068EE73E00E94CECDCB01EAE0F0E0BF0154
:103070000E94CECD805D8093EE02C90164E670E0CF
:103080000E94CECDCB01BF010E94CECD805D80934A
:10309000EF02C901BF010E94CECD282FCB01BF0195
:1030A0000E94CECD805D8093F0028EE28093F1028B
:1030B000205D2093F2028DEE92E0FF90EF90DF9082
:1030C000CF90BF90AF909F908F9008959C0197FFF5
:1030D00026C0EE27FF27E81BF90B2D398FEF3807A5
:1030E0000CF05DC08DE28093EF02CF0164E670E0EA
:1030F0000E94CECDCB012AE030E0B9010E94CECDB6
:10310000805D8093F002CF01B9010E94CECDCB014A
:10311000B9010E94CECD805D8093F1022AC0283E85
:1031200083E03807B4F1C90168EE73E00E94CECDA8
:10313000CB01EAE0F0E0BF010E94CECD805D80933C
:10314000EF02C90164E670E00E94CECDCB01BF0161
:103150000E94CECD805D8093F002C901BF010E9424
:10316000CECDCB01BF010E94CECD805D8093F10218
:10317000F901CF016AE070E00E94CECD805D8093BE
:10318000F2028FEE92E008958DE237FDC5CF80E226
:10319000C3CFF90180E2243631050CF0A4CF80E2E0
:1031A0008093EF028093F002EA30F1056CF38DE238
:1031B00037FF80E28093F002CF016AE070E00E9466
:1031C000CECD605D6093F102D4CF9C01EAE0F0E0E7
:1031D000BF010E94CECD805D8093F2022A3031057E
:1031E000CCF0CB01BF010E94CECD805D8093F10277
:1031F0002436310594F0C90164E670E00E94CECD1A
:10320000CB01BF010E94CECD805D8093F00280EFA4
:1032100092E0089582EF92E0089581EF92E00895A0
:103220009C0197FD2DC080E2243631055CF0C90178
:1032300064E670E00E94CECDCB016AE070E00E94AF
:10324000CECD805D8093F00280E22A3031055CF0C3
:10325000EAE0F0E0C901BF010E94CECDCB01BF0181
:103260000E94CECD805D8093F102C9016AE070E0DA
:103270000E94CECD805D8093F20280EF92E00895AF
:103280003195219531098DE2DDCF24E6829FC00181
:10329000112481589F4F6FEF70E00E94CECD262FF2
:1032A00081E3643609F080E28093EF0290E22A30F5
:1032B00040F03AE0822F632F0E94A1CD0E94A1CD61
:1032C000905D9093F002822F6AE00E94A1CD905D04
:1032D0009093F10285E28093F2028FEE92E00895DE
:1032E00060910E0170910F01072E000C880B990B55
:1032F0000E9491C92AE037ED43E25CE30E94F0C9E5
:1033000020912A0330912B0340912C0350912D03DF
:103310000E94F0C96093490170934A0180934B0168
:1033200090934C01089580917B04811104C0809199
:103330005B048093B3040895809140108823C1F00A
:10334000815080934010E7EDFEE0882351F08150DA
:10335000990B2BE1289FF001299FF00D1124EE5CC1
:10336000F04F8BE1ACEBBEE001900D928A95E1F756
:1033700020914010211105C080914A1080648093F3
:103380004A1081E090E0A0E0B0E0211103C080E0AD
:1033900090E0DC018093650490936604A093670439
:1033A000B093680410925F0481E08093750483E019
:1033B00080934D0108958BEE93E190932F048093B9
:1033C0002E040895CF93DF93EC01CB01BA010E9444
:1033D00091C90E94FECE79836883DF91CF910895D1
:1033E0000E9491C90E94FECECB011ACFCF93DF93EA
:1033F000EC01CB01BA010E9491C929EC38EC48ECF0
:103400005EE30E9496CE20E030E040E05FE30E9461
:103410001FCE0E9403CF6883DF91CF9108950E9451
:1034200091C929EC38EC48EC5EE30E9496CE20E08E
:1034300030E040E05FE30E941FCE0E9403CF862F62
:1034400024CFE0917B0486E0E802F0011124E85BE0
:10345000FB4F80915B0490E0958384830895CF9324
:10346000DF9300D000D0CDB7DEB70E9403CF0E941B
:103470008FC969837A838B839C83CE01019627DD74
:103480000F900F900F900F90DF91CF9108958F9232
:103490009F92AF92BF92CF92DF92EF92FF92CF9323
:1034A0006B017C0120E030E0A9010E948BC987FDFF
:1034B000C3C06DEB77E386E095E3A70196010E9418
:1034C0001FCE6B017C0120E030E0A9010E948BC976
:1034D00087FFB7C0C701B601905820E030E040E256
:1034E00051E40E94F0C920E030E040E251E40E9443
:1034F000F0C920E030E040EA50E40E941FCE20E016
:1035000030E040E251E40E9496CE0E94FECE6B0174
:103510007C0160E280EAC81686E8D80681E0E80609
:10352000F1048CF0C701B60120EA36E841E050E032
:103530000E94E1CDCA01B9012AE030E040E050E04C
:103540000E94E1CD605D6093EC0260E280E1C8160C
:1035500087E2D806E104F1048CF0C701B60120E14E
:1035600037E240E050E00E94E1CDCA01B9012AE013
:1035700030E040E050E00E94E1CD605D6093ED02FC
:1035800060E288EEC81683E0D806E104F1048CF00E
:10359000C701B60128EE33E040E050E00E94E1CDE3
:1035A000CA01B9012AE030E040E050E00E94E1CDDC
:1035B000605D6093EE0260E284E6C816D104E10427
:1035C000F1048CF0C701B60124E630E040E050E0A1
:1035D0000E94E1CDCA01B9012AE030E040E050E0AC
:1035E0000E94E1CD605D6093EF028AE0882E912C0D
:1035F000A12CB12CC701B601A50194010E94E1CD17
:10360000C62FCA01B901A50194010E94E1CD605DF8
:103610006093F0028EE28093F102C05DC093F202EB
:103620008CEE92E0CF91FF90EF90DF90CF90BF9023
:10363000AF909F908F9008956DEB77E386E095EBC8
:103640003CCF20E030E040E251E4C701B60149CF71
:10365000CF92DF92EF92FF92CF93DF9300D000D012
:10366000CDB7DEB76B017C0120E030E0A9010E94FC
:103670008BC987FD1AC06DEB77E386E095E3A70160
:1036800096010E941FCE69837A838B839C83CE012F
:1036900001961DDC0F900F900F900F90DF91CF914E
:1036A000FF90EF90DF90CF9008956DEB77E386E089
:1036B00095EBE5CF8F929F92AF92BF92CF92DF9220
:1036C000EF92FF92CF936B017C0120E030E0A901E3
:1036D0000E948BC987FD93C06DEB77E386E095E38D
:1036E000A70196010E941FCE6B017C0120E030E013
:1036F00040E251E40E94F0C920E030E04AE754E49F
:103700000E94F0C94B015C0120E030E0A901C70133
:10371000B6010E948BC920E030E040EA50E487FF08
:1037200004C020E030E040EA50ECC501B4010E9442
:103730001FCE20E030E040E251E40E9496CE0E948D
:10374000FECE6B017C01C114D104E104F10409F443
:103750005BC0F7FE59C0F094E094D094C094C11CB3
:10376000D11CE11CF11C8DE28093ED02C701B60172
:1037700028EE33E040E050E00E94E1CD8AE0882E60
:10378000912CA12CB12CCA01B901A50194010E9470
:10379000E1CD605D6093EE028EE28093EF02C7019F
:1037A000B60124E630E040E050E00E94E1CDCA01DD
:1037B000B901A50194010E94E1CD605D6093F00222
:1037C000C701B601A50194010E94E1CDC62FCA012F
:1037D000B901A50194010E94E1CD605D6093F10201
:1037E000C05DC093F2028DEE92E0CF91FF90EF901A
:1037F000DF90CF90BF90AF909F908F9008956DEB2A
:1038000077E386E095EB6CCF80E2AECFCF93DF938A
:10381000EC01CB01BA010E9491C920E030E040E206
:1038200051E40E9496CE688379838A839B83DF91DB
:10383000CF9108950E9491C920E030E040E251E428
:103840000E9496CE24CECF93DF93EC01CB01BA0138
:103850000E9491C92AE037ED43E25DE30E9496CED3
:103860000E9403CF688379838A839B83DF91CF9102
:1038700008950E9491C92AE037ED43E25DE30E947A
:1038800096CEEDCDCF93DF93EC01CB01BA010E9430
:1038900091C92AE037ED43E25DE30E9496CE68834A
:1038A00079838A839B83DF91CF9108950E9491C988
:1038B0002AE037ED43E25DE30E9496CEC9CECF9376
:1038C000DF93EC01CB01BA010E9491C9688379832F
:1038D0008A839B83DF91CF9108950E9491C9B8CECE
:1038E000CF93DF93EC01CB01BA010E9491C920E094
:1038F00030E04AE754E40E9496CE688379838A8355
:103900009B83DF91CF9108950E9491C920E030E020
:103910004AE754E40E9496CECDCECCC9CBC9CAC9E1
:10392000C9C9FC0184910895FC0180810895AF927A
:10393000BF92CF92DF92EF92FF920F931F93CF939C
:10394000DF93EC015B018A01FB01099587FD16C03D
:10395000C82ED12CF12CE12C2196F801C082D18205
:10396000E282F382CE01DF91CF911F910F91FF9000
:10397000EF90DF90CF90BF90AF900895982F907EFA
:10398000903CA9F48F7190E0B0E0A0E06C017D0163
:1039900056E0CC0CDD1CEE1CFF1C5A95D1F7CE0175
:1039A0000196F50109958F73C82A2296D6CF982FD4
:1039B000907F903E11F58F7090E0B0E0A0E06C0138
:1039C0007D0136E0CC0CDD1CEE1CFF1C3A95D1F7D6
:1039D000CE010196F50109958F73C82A46E0CC0CFB
:1039E000DD1CEE1CFF1C4A95D1F7CE010296F501B5
:1039F00009958F73C82A2396B0CF982F987F903F50
:103A000079F5877090E0B0E0A0E06C017D0186E080
:103A1000CC0CDD1CEE1CFF1C8A95D1F7CE01019663
:103A2000F50109958F73C82A96E0CC0CDD1CEE1CBD
:103A3000FF1C9A95D1F7CE010296F50109958F7377
:103A4000C82A26E0CC0CDD1CEE1CFF1C2A95D1F701
:103A5000CE010396F50109958F73C82A24967DCF70
:103A6000982F907C903841F4807C803869F42196BE
:103A7000CE01F5010995F8CF8E7F8D3F28F0219674
:103A8000CE01F5010995F8CFC12CD12C760165CF77
:103A9000CF93DF93C0913904D0913A0481E0CE31C5
:103AA000D105E4F020E030E040E05FE360913504D0
:103AB0007091360480913704909138040E941FCE93
:103AC0000E94FECE6C1B7D0B77FF03C07195619544
:103AD000710981E0633071050CF080E0DF91CF91D6
:103AE000089590E080E0089520917302833021F4DE
:103AF00025FD0CC024FD0CC030E0A90102C0559585
:103B000047958A95E2F7CA018170089581E008958A
:103B100080E0089580918E0284FD0BC08091900218
:103B200087FD07C090919102937081E019F480E0C5
:103B3000089581E008952FEB280F2A3108F047C03F
:103B4000E22FF0E080918E0290918F02A09190027E
:103B5000B091910204C0B695A795979587952A953F
:103B6000D2F780FD02C081700895EC58FD4FE081CE
:103B7000EE2341F180918B0490918C04E80FF92F92
:103B8000F11D808190ED980F9A3030F08E3251F413
:103B9000818180538A3098F4F0936C02E0936B0239
:103BA00081E008958D3211F08B3249F4818190EDDE
:103BB000980F9A3088F38E3211F48281EACFF0E0C8
:103BC000E0E0EACF10926C0210926B02E9CF80E045
:103BD0000895CF93DF9385E4AEDF882309F188E071
:103BE00040918E0250918F026091900270919102EB
:103BF000972F9170C92F90E0D92FCC0FDD1F71FB4B
:103C0000222720F930E0220F331F220F331FC22B4F
:103C100067FB442740F9C42B8C2BDF91CF9108958B
:103C200080E0DECF88DF882341F081E020916B02C5
:103C300030916C02232B09F480E008958091070FE6
:103C40009091080F891B8F7089F48091720E8130DA
:103C500069F090914A1092FB882780F992FF07C083
:103C600097FB882780F991E08927089581E00895DE
:103C70008EBD0DB407FEFDCF0895909164009B7F2B
:103C800090936400982F906A96959CBD80FD03C028
:103C900091E0863009F490E09DBD0895CF93DF93C5
:103CA000C0910A04D0910B04209729F16091060479
:103CB0007091070480910804909109040E94FECE3F
:103CC0006E5F7F4F24976C177D07ACF47093FD03F4
:103CD0006093FC030E949199605C73468F4F9F4FE5
:103CE0006093FE037093FF0380930004909301049C
:103CF000DF91CF9108951092FE031092FF0310926E
:103D0000000410920104F4CFC9CFCF93DF93C09188
:103D10000A04D0910B04209729F160910604709158
:103D2000070480910804909109040E94FECE6E5F02
:103D30007F4F24976C177D07ACF47093FD0360935D
:103D4000FC030E949199605C73468F4F9F4F609374
:103D5000FE037093FF038093000490930104DF91AE
:103D6000CF9108951092FE031092FF031092000469
:103D700010920104F4CF0F931F938091720E813043
:103D800019F50E9491990091F8021091F902209181
:103D9000FA023091FB02601B710B820B930B28EE31
:103DA00033E040E050E00E9466CD6091F4027091F3
:103DB000F5028091F6029091F702620F731F841F43
:103DC000951F1F910F9108956091FC027091FD0263
:103DD0008091FE029091FF02D6CFCF92DF92EF92B8
:103DE000FF92CF93C82F0E9491996B017C0124EA26
:103DF00030E74DE75FE36091080170910901809120
:103E00000A0190910B010E948BC987FD18C08AEFAF
:103E100090E0A0E0B0E08C0D9D1DAE1DBF1D809315
:103E20009C0290939D02A0939E02B0939F02C09328
:103E30000601CF91FF90EF90DF90CF90089580E042
:103E400090E0DC01E8CFCF93DF93C0913904D091AB
:103E50003A04209729F160913504709136048091DD
:103E60003704909138040E94FECE6E5F7F4F2497F6
:103E70006C177D07ACF47093CD036093CC030E9464
:103E80009199605E70448D4F9F4F6093CE03709305
:103E9000CF038093D0039093D103DF91CF91089506
:103EA0001092CE031092CF031092D0031092D10340
:103EB000F4CFCF93DF93EC018D81DFDE60E08B8167
:103EC000DF91CF910C942C9861E0FC0183810E94DA
:103ED0002C988FEFCDCE0F931F93CF938C01E9DFFA
:103EE0000E94579AC82F882361F08DEFC1DE0E948F
:103EF000579AC82FC801E8DF8C2FCF911F910F91DF
:103F0000089582E1F8018483F5CF4091410321E0D7
:103F100042276CE070E00C944F924091410321E005
:103F2000422764E070E00C944F924091410321E0FD
:103F3000422761E070E00C944F924091410321E0F0
:103F4000422761E070E00C944F924091410321E0E0
:103F5000422768E070E00C944F924091410321E0C9
:103F600042276CE070E00C944F9241E061E070E019
:103F70000C944F924091410321E042270C944F92C0
:103F80006CE070E00C942A9964E070E00C942A993B
:103F900061E070E00C942A9961E070E00C942A9939
:103FA0006CE070E00C942A990F931F93CF93DF93EA
:103FB0000BED14E0C4EBD4E0F80121913191419173
:103FC00051918F0160E070E080E89FE30E9496CEFF
:103FD0006993799389939993F4E0C43CDF0761F77F
:103FE0000E94A093DF91CF911F910F910C945A16CC
:103FF000DBCFDACFCF93DF9300D000D0CDB7DEB7E1
:1040000019821A821B821C82AE014F5F5F4FBC0176
:104010008EE491E00E9494BB0F900F900F900F9050
:10402000DF91CF91089560915B048FEF0C942FBDC9
:1040300080915B04682F0C942FBD6FEF80915B041F
:104040000C942FBD6EE570E482E00C94BBBB60E67F
:1040500070E481E00C94BBBB62E670E480E00C94F9
:10406000BBBB6EE07EE383E00C94BBBB10925F04AD
:104070000C94FEA280914D01882341F06091E602EC
:104080007091E70241E081E00C9431940895CF9261
:10409000DF92EF92FF920F931F93CF93DF93CDB7F1
:1040A000DEB728970FB6F894DEBF0FBECDBF8E01E6
:1040B0000F5F1F4FD80130E020E0FB01E20FF31F3C
:1040C000E491ED932F5F3F4F28303105B1F78770B2
:1040D00098E0899FB001112460648BE19FE00E9409
:1040E000C19A83E790E00197F1F77801E8E0EE0EDE
:1040F000F11C8BE9C82ED12CF80161918F018BE165
:104100009FE00E948D8FC6010197F1F7E016F1063E
:1041100099F728960FB6F894DEBF0FBECDBFDF919A
:10412000CF911F910F91FF90EF90DF90CF90089566
:10413000CF92DF92EF92FF920F931F93CF93DF9373
:1041400000D000D000D0CDB7DEB78A0146E0469F50
:104150009001479F300D1124BC01620F731F46E090
:1041600050E0CE0101960E94B4C8C980DA80EB808D
:10417000FC80F80140815181628173818FEF9FEF54
:10418000C416D506E606F70640F081E090E04C152F
:104190005D056E057F0508F080E026960FB6F89461
:1041A000DEBF0FBECDBFDF91CF911F910F91FF906A
:1041B000EF90DF90CF9008950F931F93CF93DF93ED
:1041C000CDB7DEB72E970FB6F894DEBF0FBECDBFCA
:1041D0008B011E861D86FC01608171818281938125
:1041E0006F83788789879A872FEF2B8760387105CF
:1041F0008105910538F48BE19FE00E948D8F81E06D
:1042000090E02FC09E01235F3F4FAE01495F5F4F9B
:1042100069EB70E088E99CE00E94999097FD2CC0C2
:104220008D859E8526E0289FB001299F700D112461
:104230006856734F46E050E0CE0101960E94B4C824
:104240006D818BE19FE00E948D8F01301105B9F2E5
:104250006E816623A1F28BE19FE00E948D8F82E048
:1042600090E02E960FB6F894DEBF0FBECDBFDF9163
:10427000CF911F910F9108959E01235F3F4FAE0193
:10428000495F5F4F63E670E086E49AE00E94999090
:1042900097FD0BC08D859E8526E0289FB001299F44
:1042A000700D11246A5B754FC5CF6FE3A4CF809169
:1042B0006B0290916C02009731F04AE050E070E0A0
:1042C00060E00C94ACC760E070E0CB010895809191
:1042D0006B0290916C02009731F04AE050E070E080
:1042E00060E00C9481C660E070E0CB010895EFDFE0
:1042F000CB010895ECDF97FD0AC0E9DF6F3F710540
:104300008105910509F02CF4E2DF862F089580E005
:1043100008958FEF089580916B0290916C02892B24
:1043200039F0E8DF91E0811101C090E0892F089514
:1043300091E0FCCFCF93DF93C82FD62F73DC882377
:1043400019F0DF91CF91E7CF8C2FF5DB811101C000
:104350008D2FDF91CF9108950F931F93CF9380916D
:104360006B0290916C02009709F1FC018F01C191E1
:104370002C2F2F7DA1F0C53431F0C53621F0C83582
:1043800011F0C83799F7F801108270E060E00E94E0
:104390002CC5F801C083CF911F910F91089570E053
:1043A00060E0CF911F910F910C942CC560E070E0FC
:1043B000CB01F1CFCF93DF93EC010E945A9F1B8278
:1043C000DF91CF910895CF93DF93EC01462F417099
:1043D0006C857D858E859F850E94509C882351F039
:1043E000888920E2829FC00111248B5C934FDF916A
:1043F000CF91089590E080E0FACFCF93DF93EB0167
:10440000FC012381211104C080E0DF91CF91089548
:104410002250223028F48FE28883198281E0F5CF80
:1044200060E0D1DF009781F3DC0160E080E09EE294
:104430002D91203299F0883031F49E01260F311DE4
:10444000F90190836F5F9E01260F311DAD01415030
:104450005109FA014081F90140836F5F8F5F8B3012
:1044600039F7FE01E60FF11D1082D8CF3F924F922F
:104470005F926F927F928F929F92AF92BF92CF92F4
:10448000DF92EF92FF920F931F93CF93DF93CDB7FD
:10449000DEB72C970FB6F894DEBF0FBECDBF5C0120
:1044A000DC0159968D909C90F40181859285A385BD
:1044B000B4859C01AD012F5F3F4F4F4F5F4F298760
:1044C0003A874B875C87D50114964D905D906D902F
:1044D0007C901797411451046104710409F459C088
:1044E000BFEF4B1A5B0A6B0A7B0A312C7301620126
:1044F0001D821E821F821886F40181859285A38504
:10450000B4852D813E814F815885281739074A0788
:104510005B0708F056C089859A85AB85BC858C15EC
:104520009D05AE05BF0550F482E0C82ED12CE12CCC
:10453000F12C92E0492E512C612C712C9E012F5FA1
:104540003F4FB701A601C4010E946F9E8823C9F1A5
:1045500089819A81AB81BC81892B8A2B8B2B01F1BC
:10456000260137019FEF491A590A690A790A2D81F4
:104570003E814F8158852F5F3F4F4F4F5F4F2D83B7
:104580003E834F8358873FEFC31AD30AE30AF30AE7
:10459000B3CF408051806280738033243394A6CFA0
:1045A000C414D504E604F70411F70FEF1FEF2FEF43
:1045B0003FE0B701A601C4010E94DE9D782E811163
:1045C0001AC0712C872D2C960FB6F894DEBF0FBE43
:1045D000CDBFDF91CF911F910F91FF90EF90DF90B2
:1045E000CF90BF90AF909F908F907F906F905F9093
:1045F0004F903F900895F501448155816681778100
:10460000411551056105710539F097018601C40115
:104610000E94DE9D8823A9F2D5011496CD92DD92E9
:10462000ED92FC921797332051F0D701C601019605
:10463000A11DB11DF40180839183A283B383F50191
:1046400085899689A789B08D892B8A2B8B2B09F0B8
:10465000B9CFC58AD68AE78AF08E81818068818346
:10466000B1CF40E050E0BA010C94A49FFC0123813B
:104670002111A0CE08952F923F924F925F926F9298
:104680007F928F929F92AF92BF92CF92DF92EF92E2
:10469000FF920F931F93CF93DF93CDB7DEB7C45430
:1046A000D1090FB6F894DEBF0FBECDBF7C014B0120
:1046B0005A01222E19821C821C8E1F8E61157105D3
:1046C00011F410E0B0C1DC0113968C918111F9CF87
:1046D000FA0180818B018F32D1F4DB0113968C912A
:1046E00013978250823060F059966D917C91CE0183
:1046F0004C960E94AFA28E01045E1F4F882309F3DF
:10470000C5015C010196F50120812F32D1F39E0194
:104710002F5F3F4F6901290130E2332E2496CFAE3F
:1047200024972596DFAE25973E013CE1630E711C70
:1047300022963FAE229721963FAE21973FAE3EAEE6
:104740003DAE3CAE3BAE3AAE39AE38AE3FAA950177
:1047500090E047E0D9018D91882361F18F3251F1CA
:104760008E3239F44A3009F4ACCF98E04AE09D012A
:10477000F1CFE9E9F8E12491222321F03196821367
:10478000FACF9FCF491708F49CCF813208F499CF14
:104790008F3709F496CF3FE9380F3A3108F420EE0D
:1047A000E7E3F0E0EC0FFD1FE90FF11D820F8083BE
:1047B0009F5FDDCF8FA9803209F483CF5901D901E2
:1047C0008C912F5F3F4F8F32C9F38823A1F00815DA
:1047D000190511F0C801EEDD24969FAD24972596AA
:1047E0008FAD25974C145D0411F4962D872D86010D
:1047F000C92ED82E9DCFF801818D928DD7015A9662
:104800009C938E935997C8012CDFC12CF8018085A9
:104810009185A285B38541895289638974898417FA
:104820009507A607B70708F053C025E0B695A795EA
:10483000979587952A95D1F7F82FFF70DF2ED8012D
:1048400013968C91823008F43CCF41E050E0BE01D9
:104850006E5B7F4FC8010E94C6A0019709F031CF5F
:10486000F80180859185A285B3854F96A11DB11D64
:1048700080879187A287B387F0E2DF9EB001112481
:104880006B5C734F6115710509F41BCFDB018C91D3
:10489000882341F0853E09F04CC0CC2029F0CC247F
:1048A000C394B4CFC1100EC08091350E9091360ED6
:1048B000A091370EB091380EF70184879587A687AF
:1048C000B787D08ADB018C918111E9CFCC24C394C6
:1048D000822D8274823409F0F4CECC2009F4C4C055
:1048E000F701D08861E0C7016EDD009709F4E9CED9
:1048F00020E2DC011D922A95E9F72BE0FE01F796F4
:10490000DC0101900D922A95E1F721E238E2FC01E9
:10491000318B208B40E058E057874687338B228BC2
:10492000318F208F578B468B0E94079C81110AC0C4
:10493000C8CE4BE050E0CE01C7960E940FD0892B25
:1049400009F064CF2D2D30E0F901B5E0EE0FFF1F27
:10495000BA95E1F7DF01AB5CB34F1B968C91817187
:1049600021F0822D827109F01DC1D70159968D91D8
:104970009C915A974091350E5091360E6091370EAA
:104980007091380E1C964D935D936D937C931F9799
:104990005096DC925097EB5CF34F84889588B12C4D
:1049A000A12C54019924882455968D929D92AD9204
:1049B000BC925897428D538D70E060E04829592988
:1049C0006A297B2955964D935D936D937C935897F7
:1049D000A5E0220F331FAA95E1F7D901AB5CB34FD5
:1049E0001B962C91287109F0CFC0848D958DA68DD2
:1049F000B78DF701818B928BA38BB48B81E083837E
:104A0000822D8F70F701818314821582168217829E
:104A1000108611861286138611E024FE04C0C70199
:104A20000E9437A0182FCE014C9620DECE010196B1
:104A30001DDE812FCC5BDF4F0FB6F894DEBF0FBEBB
:104A4000CDBFDF91CF911F910F91FF90EF90DF903D
:104A5000CF90BF90AF909F908F907F906F905F901E
:104A60004F903F902F900895D80113968C911397F3
:104A7000823009F426CE51968D919D910D90BC9176
:104A8000A02D803E9F4FAF41B10508F01ACEC8015E
:104A9000EDDC882309F415CE0E94079C882309F4D5
:104AA00010CED8015996ED91FC915A9714968D909D
:104AB0009D90AD90BC901797B2E08B1A9108A10819
:104AC000B108858504C0880C991CAA1CBB1C8A955A
:104AD000D2F786859785A089B189880E991EAA1E6E
:104AE000BB1E81E08093390E8092350E9092360E77
:104AF000A092370EB092380EE5E3FCE080E092E041
:104B0000DF019C011D9221503040E1F7DD24D39458
:104B1000D8015996ED91FC918481D816C0F480910A
:104B20003A0E90913B0EDC01ED91FC910288F389E5
:104B3000E02D25E33CE0B501A4014D0D511D611DA3
:104B4000711D0995882309F4BCCDD394E1CF258547
:104B500080E092E0A0E0B0E004C0880F991FAA1F97
:104B6000BB1F2A95D2F7F80141895289638974895C
:104B7000840F951FA61FB71F818B928BA38BB48BBD
:104B800085E39CE0D12CB4CE203161F497012F5EF7
:104B90003F4F0E94F19E882329F084E0D7011396AD
:104BA0008C932ECFD70113961C928BCD0F930FB7FA
:104BB0000F9300916E000D7F00936E0078940F9319
:104BC0000BB70F930CB70F921F922F933F934F93F6
:104BD0005F936F937F938F939F93AF93BF93EF9365
:104BE000FF9311240E949132FF91EF91BF91AF91F9
:104BF0009F918F917F916F915F914F913F912F91F5
:104C00001F900F900CBF0F910BBF0F910260F89493
:104C100000936E000F910FBF0F911895CF93DF9304
:104C2000C2E0D4E01986188670D81A865D98C1E370
:104C3000D4E01986188607D91A865C98DF91CF913F
:104C400008958F929F92AF92BF92CF92DF92EF9290
:104C5000FF920F931F93CF93DF93B0E2A0E06A2FF0
:104C600070E0AB014B0F511D55954795411119C08F
:104C7000E0E4FAE165917491072E000C880B990B22
:104C80000E9491C9DF91CF911F910F91FF90EF90FA
:104C9000DF90CF90BF90AF909F908F900895B42FEA
:104CA000E0CFA41711F0B41303C0ECEBFAE1E2CFAC
:104CB0009A0121503109220F331F220F331FF901AE
:104CC000E25CF54EE590F490F901EE5BF54EC5918E
:104CD000D4918E159F0518F3A42FC817D90708F48F
:104CE000BECFF901E05CF54E05911491F901EC5B42
:104CF000F54EC590D4908E199F09BC0190E080E0DC
:104D00000E948FC94B015C01B601601B710B072E1D
:104D1000000C880B990B0E9491C99B01AC01C50145
:104D2000B4010E94F0C94B015C01CE19DF09BE013C
:104D300090E080E00E948FC99B01AC01C501B401E5
:104D40000E9496CE6B017C01B801110F880B990B64
:104D50000E9491C99B01AC01C701B6010E941FCE00
:104D600091CFBC0120918D0330918E0340918D0332
:104D700050918E032417350731F481E02617370749
:104D800009F080E008959A01F1CF0F930FB70F93C8
:104D900000916E000F930D7F00936E0000916F00E5
:104DA0000D7F00936F000F930BB70F930CB70F920B
:104DB0001F922F933F934F935F936F937F938F93A4
:104DC0009F93AF93BF93EF93FF9311244DD3FF9124
:104DD000EF91BF91AF919F918F917F916F915F9173
:104DE0004F913F912F911F900F900CBF0F910BBFD0
:104DF0000F910260F89400936F000F9100936E0082
:104E00000F910FBF0F91189500C000C08091200432
:104E100080FF1FC045988FEF80934403809120044A
:104E200081FF1AC047988FEF80934503809120043B
:104E300082FF15C02A9A8FEF809346038091200449
:104E400083FF10C028988FEF8093470300C000C0F5
:104E50000895459A81E0E0CF479A81E0E5CF2A980E
:104E600081E0EACF289A81E0EFCF80914303982F29
:104E7000977F90934303982F937081E011F080E027
:104E800008955E9A08955E988091430388608093A8
:104E900043030895E82FF0E021E030E0082E02C03F
:104EA000220F331F0A94E2F7209530959091430327
:104EB000922390934303E552FE4F2081922321E0F9
:104EC00019F020E0822F0895813079F038F0823097
:104ED000C9F7159A90911F049B7F04C05E9A909128
:104EE0001F049E7F90931F04EDCF5E9A90911F0444
:104EF0009D7FF8CF80E0CEDF81E0CCDF82E0CADFAB
:104F0000B4CF9091070F8091080F981307C080913C
:104F1000C4049091C504892B09F4ECCF0E9448A7E2
:104F2000F0CF813079F070F0823071F021E030E024
:104F300001C0220F8A95EAF780914303822B809368
:104F4000430308955E98F2CF1598F0CFCF93DF9387
:104F500020912F0321111DC090912E0391111AC091
:104F6000C0911001D0911101219720E030E040E084
:104F70005FE36091060470910704809108049091AA
:104F800009040E941FCE0E94FECE21E06C177D070F
:104F90000CF020E0822FDF91CF9108959091070FC0
:104FA0008091080F981306C08091C4049091C504A5
:104FB000892B19F00E9448A7F1CF08954F925F9274
:104FC0006F927F928F929F92AF92BF92CF92DF9219
:104FD000EF92FF920F931F93CF93DF93CDB7DEB77E
:104FE00062970FB6F894DEBF0FBECDBF9A8B898B48
:104FF0007B018A01DC01D6966D917D918D919C910A
:10500000D9970E948FC94B015C01F7012081318142
:10501000428153810E94F0C90E9483CE2B013C0142
:10502000D8012D913D914D915C91C501B4010E9433
:10503000F0C90E9483CE6B017C01C301B2010E94C2
:1050400003CF69877A878B879C87683771058105CD
:10505000910540F428E730E040E050E029873A87A6
:105060004B875C87C701B6010E9403CF6D837E83A7
:105070008F839887683771058105910540F488E72B
:1050800090E0A0E0B0E08D839E83AF83B887E9898C
:10509000FA89EE5BFF4FC080D180E280F380A9895E
:1050A000BA8995962D913D914D915C919897298360
:1050B0003A834B835C8380E090E0DC01412C512CEF
:1050C0003201C114D104E104F10409F4A3C0A50123
:1050D0009401C501B4010E94F0C94B015C016985CE
:1050E0007A858B859C850E948FC92B013C01C70165
:1050F000B6010E9491C99B01AC0160E070E080E0C4
:105100009FE30E9496CE6B017C01A3019201C30133
:10511000B2010E94F0C99B01AC01C501B4010E941B
:105120001ECEA70196010E94F0C96D877E878F87EA
:10513000988B0E9483CE0E9403CF2B013C016D818E
:105140007E818F8198850E948FC99B01AC010E944E
:10515000F0C99B01AC01C501B4010E941ECEA7019C
:1051600096010E94F0C96B017C010E942FCF0E9422
:1051700003CFDC01CB0153014201880E991EAA1E08
:10518000BB1E29813A814B815C81281939094A0962
:105190005B0949015A01B7FE3DC069817A818B8163
:1051A0009C810E948FC92D853E854F8558890E941C
:1051B0001FCEA70196010E941ECE20E030E040E005
:1051C0005FE30E94F0C90E9483CE6B017C0120E066
:1051D00030E0A9010E9482CF18161CF0C12CD12CFE
:1051E0007601C701B6010E9403CF2B013C018981E2
:1051F0009A81AB81BC8184159505A605B70510F48D
:105200002C013D0189819A81AB81BC81841995096A
:10521000A609B709E989FA8941A652A663A674A628
:1052200029813A814B815C81281B390B4A0B5B0B2E
:10523000DA01C90185A796A7A7A7B0AB29853A854A
:105240004B855C8522AF33AF44AF55AFFE962D81C1
:105250003E814F81588520833183428353836296F8
:105260000FB6F894DEBF0FBECDBFDF91CF911F9177
:105270000F91FF90EF90DF90CF90BF90AF909F90F5
:105280008F907F906F905F904F90089590916F00F6
:1052900081E091FD02C080E0089590916F009D7FB4
:1052A00090936F000895EFE6F0E080818260808344
:1052B0000895CF93C82FEADF94E0C99F900111248D
:1052C000F901E057FC4F24563C4FD9014D915D91B7
:1052D0006D917C91408351836283738391E09093BD
:1052E0008F03882311F0CF91DECFCF910895CF9314
:1052F000DF9380911E04882309F452C0809100033B
:10530000329948C0816080930003809100033399F3
:1053100043C08260809300038091000334993EC0B3
:10532000846080930003C0918003C0FF0FC0809110
:10533000200480FF0BC08091000380FF07C0809194
:10534000800481608093800480E0B3DFC1FF0FC0E0
:105350008091200481FF0BC08091000381FF07C072
:105360008091800482608093800481E0A2DFC2FF8C
:1053700017C08091200482FF13C08091000382FF38
:105380000FC08091800484608093800482E0DF916C
:10539000CF918FCF8E7FB7CF8D7FBCCF8B7FC1CF8B
:1053A000DF91CF91089572DF1092AF041092B00494
:1053B0001092B1041092B204811175CF08950F9329
:1053C0001F938091070F9091080F891B8F7009F42C
:1053D00049C09091040F992361F0833040F48FEF1E
:1053E000890F29F08093040F90E080E038C010927C
:1053F000040F8091080F2BE4829FC0011124815F6C
:105400009A4FFC01208120FDEFCF4091AF045091D5
:10541000B0046091B1047091B204E95BFF4F008168
:10542000118122813381401B510B620B730B40931E
:10543000AF045093B0046093B1047093B204209110
:10544000080F2F5F2F702093050F3091080F2091C8
:10545000060F321304C02091050F2093060F1F91F1
:105460000F910895A0DFC0CF3F924F925F926F924D
:105470007F928F929F92AF92BF92CF92DF92EF92E4
:10548000FF920F931F93CF93DF9300D000D01F9212
:10549000CDB7DEB78FEF9FEF9093890080938800A0
:1054A000FAE03F2E10E000E078948091890390911B
:1054B0008A03A0918B03B0918C03892B8A2B8B2BB1
:1054C00009F0E2C180918F038823D1F080918D0390
:1054D00090918E0310928F03892B91F010928E037E
:1054E00010928D03109280039091070F8091080F06
:1054F000981731F08091080F8F5F8F708093080F9D
:1055000080918D0390918E03892B09F4BDC1409148
:105510008503509186036091870370918803809181
:10552000810390918203A0918303B09184038090C2
:105530003004912CB12CA12C841B950BA60BB70B1E
:1055400088169906AA06BB0610F4D501C401282FB7
:10555000840F951FA61FB71F809385039093860322
:10556000A0938703B093880331E040914C0350919E
:105570004D0360914E0370914F0380915C039091B5
:105580005D03A0915E03B0915F03840F951FA61F7A
:10559000B71F80935C0390935D03A0935E03B09369
:1055A0005F03AC01BD0140955095609570956A010F
:1055B0007B01CC24F7FCC394DD24EE24FF24C982B4
:1055C000DA82EB82FC82D980DD82B7FD2FC0409168
:1055D0004403842E440F9908AA08BB0840919C03F9
:1055E00050919D0360919E0370919F03480D591D3A
:1055F0006A1D7B1D40939C0350939D0360939E0303
:1056000070939F03409148035091490360914A036E
:1056100070914B03841B950BA60BB70B80935C0317
:1056200090935D03A0935E03B0935F03409150039A
:105630005091510360915203709153038091600324
:1056400090916103A0916203B0916303840F951F51
:10565000A61FB71F8093600390936103A09362031A
:10566000B09363036C017D01C094D094E094F094F6
:10567000CC24F7FCC394DD24EE24FF24FC2DB7FDDD
:105680002FC080904503082C000C9908AA08BB087D
:105690004091A0035091A1036091A2037091A303D4
:1056A000480D591D6A1D7B1D4093A0035093A10313
:1056B0006093A2037093A303409148035091490360
:1056C00060914A0370914B03841B950BA60BB70B9B
:1056D0008093600390936103A0936203B09363038C
:1056E00040915403509155036091560370915703B4
:1056F0008091640390916503A0916603B091670364
:10570000840F951FA61FB71F8093640390936503B2
:10571000A0936603B09367032C013D01409450941D
:1057200060947094442477FC439455246624772431
:10573000E42DB7FD2FC080904603082C000C99087B
:10574000AA08BB084091A4035091A5036091A60349
:105750007091A703480D591D6A1D7B1D4093A4033A
:105760005093A5036093A6037093A7034091480349
:105770005091490360914A0370914B03841B950B30
:10578000A60BB70B8093640390936503A093660305
:10579000B0936703409158035091590360915A03A5
:1057A00070915B038091680390916903A0916A03F3
:1057B000B0916B03840F951FA61FB71F80936803DA
:1057C00090936903A0936A03B0936B0340E0B7FD25
:1057D00030C080904703082C000C9908AA08BB0829
:1057E0004091A8035091A9036091AA037091AB0363
:1057F000480D591D6A1D7B1D4093A8035093A903B2
:105800006093AA037093AB034091480350914903FE
:1058100060914A0370914B03841B950BA60BB70B49
:105820008093680390936903A0936A03B0936B031A
:1058300041E0311104C080918400909185009981EC
:105840008D8181115F9A8C2DF111469AE1112B9A6D
:105850004111299A609184007091850060918400C3
:105860007091850091115F988111469841102B9895
:1058700041112998222321F0809184009091850084
:10588000215030E009F071CE8091890390918A0314
:10589000A0918B03B0918C03892B8A2B8B2B09F061
:1058A00099C2E0918D03F0918E03309709F4DEC226
:1058B0008091850390918603A0918703B09188031E
:1058C000409181035091820360918303709184031E
:1058D00084179507A607B70708F451C010928E03E6
:1058E00010928D03109280039091070F8091080F02
:1058F000981709F4BBC28091080F8F5F8F70809357
:10590000080F50ED852E57E0952EA12CB12C8091DB
:105910008D0390918E03892B09F054C250DD909332
:105920008E0380938D03892B09F44CC2C0908D03A4
:10593000D0908E03DA82C982D6019C9193FB88278E
:1059400080F993FF0E945816882309F430C1898199
:105950009A8145960E944F1610928E0310928D03E5
:10596000109280039091070F8091080F9817B1F261
:105970008091080F8F5F8F708093080FCFCF409179
:105980007C0350917D0360917E0370917F034817E3
:1059900059076A077B0708F471C0809178039091DA
:1059A0007903A0917A03B0917B0341A952A963A91D
:1059B00074A9FF24859FE12C969F9001A69F300D2E
:1059C000A59F200D311D869FE00C211D3F1D959F39
:1059D000E00C211D3F1DA49FE00C211D3F1D949F45
:1059E000E10C2F1D3F1DE6942F1D3F1D789F200DBC
:1059F000311D799F300D112482AD93ADA4ADB5ADAD
:105A0000820F931FA11DB11D8093740390937503A2
:105A1000A0937603B093770346A957A960AD71AD03
:105A2000481759076A077B0740F440937403509363
:105A3000750360937603709377036091740370919C
:105A4000750380917603909177030E94B5974B017F
:105A50005C018091780390917903A0917A03B091D1
:105A60007B03880D991DAA1DBB1D8093780390931D
:105A70007903A0937A03B0937B0349CF40917003DD
:105A80005091710360917203709173034817590725
:105A90006A077B0708F06AC080916C0390916D03E0
:105AA000A0916E03B0916F0341A952A963A974A993
:105AB000FF24859FE12C969F9001A69F300DA59F06
:105AC000200D311D869FE00C211D3F1D959FE00C90
:105AD000211D3F1DA49FE00C211D3F1D949FE10C43
